:020000041000EA
:10000000D3DEFFFF420121100302000000020010B6
:0C001000FF03000000000000793512AB77
:1001000000000000000000000000000000000000EF
:1001100000000000000000000000000000000000DF
:1001200000000000000000000000000000000000CF
:1001300000000000000000000000000000000000BF
:1001400000000000000000000000000000000000AF
:10015000000000000000000000000000000000009F
:10016000000000000000000000000000000000008F
:10017000000000000000000000000000000000007F
:10018000000000000000000000000000000000006F
:10019000000000000000000000000000000000005F
:1001A000000000000000000000000000000000004F
:1001B000000000000000000000000000000000003F
:1001C000000000000000000000000000000000002F
:1001D000000000000000000000000000000000001F
:1001E000000000000000000000000000000000000F
:1001F00000000000000000000000000000000000FF
:10020000C00F0020E90E0010C72F0010D50E0010FF
:10021000D50E0010D50E0010D50E0010D50E001012
:10022000000000000000000000000000A10F00100E
:10023000D50E0010000000004D0F0010B518001082
:10024000F5100010F5100010F5100010F51000105A
:10025000F5100010F5100010F5100010F51000104A
:10026000F5100010F5100010F5100010F51000103A
:10027000F5100010F5100010F5100010F51000102A
:10028000F5100010F5100010F5100010F51000101A
:10029000F5100010F5100010F5100010F51000100A
:1002A000F5100010F5100010F5100010F5100010FA
:1002B000F5100010F5100010F5100010F5100010EA
:1002C000F5100010F5100010F5100010F5100010DA
:1002D000F5100010F5100010F5100010F5100010CA
:1002E000F5100010F5100010F5100010F5100010BA
:1002F000F5100010F5100010F5100010F5100010AA
:10030000F5100010F5100010F5100010F510001099
:1003100080F0004002E000BF81F0004142001FBFBA
:100320005FEA410392EA030F7FEA226C7FEA236CC3
:100330006AD04FEA1262D2EB1363C1BFD2184140B8
:1003400048404140B8BF5B42192B88BF704710F04E
:10035000004F40F4000020F07F4018BF404211F0F1
:10036000004F41F4000121F07F4118BF494292EA59
:10037000030F3FD0A2F1010241FA03FC10EB0C0085
:10038000C3F1200301FA03F100F0004302D5494212
:1003900060EB4000B0F5000F13D3B0F1807F06D3BF
:1003A00040084FEA310102F10102FE2A51D2B1F1B7
:1003B000004F40EBC25008BF20F0010040EA0300AC
:1003C0007047490040EB0000013A28BFB0F5000F2C
:1003D000EDD2B0FA80FCACF1080CB2EB0C0200FAE2
:1003E0000CF0AABF00EBC25052421843BCBFD04031
:1003F0001843704792F0000F81F4000106BF80F4AB
:1004000000000132013BB5E74FEA41037FEA226C6D
:1004100018BF7FEA236C21D092EA030F04D092F038
:10042000000F08BF0846704790EA010F1CBF00206C
:10043000704712F07F4F04D1400028BF40F00040C9
:10044000704712F100723CBF00F50000704700F0E9
:10045000004343F0FE4040F4000070477FEA226210
:1004600016BF08467FEA23630146420206BF5FEAE1
:10047000412390EA010F40F4800070474FF00003E1
:1004800004E000BF10F0004348BF40425FEA000CA8
:1004900008BF704743F0964301464FF000001CE050
:1004A00050EA010208BF70474FF000030AE000BFA6
:1004B00050EA010208BF704711F0004302D54042E4
:1004C00061EB41015FEA010C02BF84460146002056
:1004D00043F0B64308BFA3F18053A3F50003BCFA71
:1004E0008CF2083AA3EBC25310DB01FA02FC63441E
:1004F00000FA02FCC2F12002BCF1004F20FA02F225
:1005000043EB020008BF20F00100704702F1200217
:1005100001FA02FCC2F1200250EA4C0021FA02F278
:1005200043EB020008BF20EADC7070474FF0FF0C7D
:100530001CEAD0521EBF1CEAD15392EA0C0F93EA78
:100540000C0F6FD01A4480EA010C400218BF5FEA1A
:1005500041211ED04FF0006343EA501043EA51118D
:10056000A0FB01310CF00040B1F5000F3EBF490087
:1005700041EAD3715B0040EA010062F17F02FD2A8B
:100580001DD8B3F1004F40EBC25008BF20F001006E
:10059000704790F0000F0CF0004C08BF49024CEA85
:1005A000502040EA51207F3AC2BFD2F1FF0340EA17
:1005B000C250704740F400004FF00003013A5DDC88
:1005C00012F1190FDCBF00F000407047C2F10002C9
:1005D000410021FA02F1C2F1200200FA02FC5FEAB6
:1005E000310040F1000053EA4C0308BF20EADC7000
:1005F000704792F0000F00F0004C02BF400010F472
:10060000000F013AF9D040EA0C0093F0000F01F01E
:10061000004C02BF490011F4000F013BF9D041EA40
:100620000C018FE70CEAD15392EA0C0F18BF93EA42
:100630000C0F0AD030F0004C18BF31F0004CD8D16C
:1006400080EA010000F00040704790F0000F17BFF3
:1006500090F0004F084691F0000F91F0004F14D039
:1006600092EA0C0F01D142020FD193EA0C0F03D191
:100670004B0218BF084608D180EA010000F0004094
:1006800040F0FE4040F40000704740F0FE4040F46F
:10069000400070474FF0FF0C1CEAD0521EBF1CEA0E
:1006A000D15392EA0C0F93EA0C0F69D0A2EB03022C
:1006B00080EA010C49024FEA402037D04FF08053C6
:1006C00043EA111143EA10130CF000408B4238BF8B
:1006D0005B0042F17D024FF4000C8B4224BF5B1A99
:1006E00040EA0C00B3EB510F24BFA3EB510340EAE7
:1006F0005C00B3EB910F24BFA3EB910340EA9C0095
:10070000B3EBD10F24BFA3EBD10340EADC001B0104
:1007100018BF5FEA1C1CE0D1FD2A3FF650AF8B42A8
:1007200040EBC25008BF20F0010070470CF0004CB5
:100730004CEA50207F32C2BFD2F1FF0340EAC250E0
:10074000704740F400004FF00003013A37E792F0A1
:10075000000F00F0004C02BF400010F4000F013AFF
:10076000F9D040EA0C0093F0000F01F0004C02BFFA
:10077000490011F4000F013BF9D041EA0C0195E763
:100780000CEAD15392EA0C0F08D142027FF47DAFFC
:1007900093EA0C0F7FF470AF084676E793EA0C0FEC
:1007A00004D14B023FF44CAF08466EE730F0004CEA
:1007B00018BF31F0004CCAD130F000427FF45CAF7A
:1007C00031F000437FF43CAF5FE700BF4FEA4002E7
:1007D000B2F1FE4F0FD34FF09E03B3EB12620DD96F
:1007E0004FEA002343F0004310F0004F23FA02F0D9
:1007F00018BF404270474FF00000704712F1610F80
:1008000001D1420205D110F0004008BF6FF0004056
:1008100070474FF00000704753B94AB9002908BF2C
:1008200000281CBF4FF0FF314FF0FF3000F00CB834
:10083000ADF1080C6DE904CE00F008F8DDF804E035
:10084000DDE9022304B07047704700BF2DE9F0478F
:1008500086468C460846089E154674461946002B67
:1008600040F0C1808542B2FA82F245D94AB1C2F164
:10087000200300FA02FC954094402EFA03F343EA69
:100880000C0C4FEA154EA8B2230CBCFBFEF80EFB75
:1008900018CC08FB00F943EA0C43994528D9EB181A
:1008A00008F1FF3704D2994502D9A8F102072B4479
:1008B000A3EB0903A4B2B3FBFEFC0EFB1C330CFB41
:1008C00000F044EA0344A04214D92C190CF1FF3380
:1008D00004D2A04202D9ACF102032C44241A43EA08
:1008E00007401EB1D440002334607360BDE8F08738
:1008F0004746DDE76346F1E792BB431B01214FEA20
:10090000154EAFB2200CB3FBFEFC0EFB1C330CFBF0
:1009100007F840EA0343984561D9EB180CF1FF3022
:1009200004D2984502D9ACF102002B44A3EB080392
:10093000A4B2B3FBFEFC0EFB1C330CFB07F744EA2E
:100940000344A7424DD92C190CF1FF3304D2A7421E
:1009500002D9ACF102032C44E41B43EA0040C0E797
:10096000C2F120039540944020FA03F12EFA03F3DC
:100970004FEA154E9040AFB20343B1FBFEFC0EFBB5
:100980001C10190C0CFB07F841EA0041884522D9DC
:1009900069180CF1FF3004D2884502D9ACF102008D
:1009A0002944A1EB08019BB2B1FBFEFC0EFB1C111C
:1009B0000CFB07F743EA01439F420ED9EB180CF1F9
:1009C000FF3104D29F4202D9ACF102012B44DB1B60
:1009D00041EA004193E76046E3E76146F7E7604696
:1009E000A4E76346B8E7834206D916B90021084652
:1009F0007CE7C6E900E0F9E7B3FA83F78FB98342F1
:100A000001D3724508D8BEEB020460EB030301205A
:100A10009C461EB9002169E73846FAE7C6E9004C52
:100A2000F8E7C7F1200CBB400EFA07F522FA0CF4E8
:100A30002EFA0CF1BA401C4320FA0CF3B8404FEAEE
:100A4000144901431FFA84FEB3FBF9F809FB18307F
:100A50000B0C08FB0EFA43EA00439A4540D9E31811
:100A600008F1FF3004D29A4502D9A8F102002344CC
:100A7000A3EB0A0389B2B3FBF9F809FB183308FBAF
:100A80000EFE41EA03418E452CD9611808F1FF336F
:100A900004D28E4502D9A8F10203214443EA004062
:100AA000A1EB0E01A0FB02984145CE46434602D37E
:100AB00006D14D4504D20138B9EB020E68EB0403B0
:100AC000002EA7D0B5EB0E0261EB030101FA0CFC7E
:100AD00022FA07F3F9404CEA0303C6E9003199E72B
:100AE0004046C5E74346D9E7F8B51B4D284602F016
:100AF000FFFE044620B9194801F0F0FE0020F8BDC1
:100B00002A69A9681368284623F4004313600B6818
:100B10004FF420220F21984700280BDB104F114E75
:100B2000AB684FF4004128465B699847002803DA18
:100B30000D48E1E70D48DFE784F0010414F0FF04FD
:100B400014BF394631460A4801F0B6FE002142F290
:100B5000107002F04BFFE3E75C3C001023400010F4
:100B60001C4000101F4000105F400010404000106B
:100B70007B400010014B1B68184700BF000000209D
:100B8000014B1860704700BF0000002030B585B0F1
:100B900004460D4610220021684602F09FFF022302
:100BA0008DF80230044B2A4621466846019301F035
:100BB000B5FE05B030BD00BF750B001080B5054611
:100BC0000E461746984601F0F9FB034602F0F0FF87
:100BD0000446DFF81890424649F80030394630465E
:100BE000A84754F8090000F09BF900BF0800000076
:100BF00030BFFFF7FDBF00BF2DE9F04105460B4EAA
:100C0000DFF82C80324606EB0807CC1B204609494A
:100C100002F057FFA01942460021083C02F05EFF97
:100C20006C6607F10800BDE8F08100BF000000001D
:100C300004000000B83E0010054B5A699B689A42B8
:100C40001FBF044A536843F080535360704700BF8E
:100C50005002002000ED00E0154B9A6A12F0007F70
:100C60009A6A14BF1E201D2012F0807F9A6A18BF56
:100C70001F2012F4801F9A6A18BF202012F4002F40
:100C80009A6A18BF212012F4802F9A6A18BF222076
:100C900012F4003F9A6A18BF232012F4803F9A6A28
:100CA00018BF24206FEA02426FEA12429A6270472C
:100CB00000ED00E010B5194B0246986A9C6A10F4EA
:100CC000805F14BF1720162014F4006F9C6A18BFB1
:100CD0001820A40509D5986B986A000404D51AB1A8
:100CE0009A6A22F400429A6219200C4B9A6A12F412
:100CF000806F9A6A18BF1A20D2050CD49B6A13F42D
:100D0000005F18BF1C20054A936A43F47F43936237
:100D100000230B7010BD1B20F5E700BF00ED00E0C5
:100D200010B51C4B0246986A9C6A10F0100F14BF55
:100D30001120102014F0080F9C6A18BF1220A4077D
:100D400009D5586B986A000604D51AB19A6A22F040
:100D500080029A6213200F4B9A6A12F0010F9A6A6E
:100D600018BF142012F0200F9A6A18BF1520D4065D
:100D700058BF9B6A074B9A6A920642BF5A6A22F48E
:100D800000525A629A6A42F0FF029A6200230B7084
:100D900010BD00BF00ED00E0F0B5474B04465B68B6
:100DA00000258BB0C3F3080385F31188BFF36F8F61
:100DB00002F07F40B0F17F4F11D102F00C00082803
:100DC0000DD010074CBF0C4601250022033B8DF8C7
:100DD0000720032B05D8DFE803F02462665F2C466A
:100DE000F3E700239DF80720CAB902AE04F12007FB
:100DF000324620686168083403C2BC421646F7D107
:100E0000099A002D53D0C2F3080121B96FEA52228A
:100E10006FEA42220992184602A902F0CAF80BB002
:100E2000F0BD254BDA6A9107DBD4DA6A002AD8DBF9
:100E3000DA6A5200D5D55A69A16942F480725A61C2
:100E4000BFF34F8FBFF36F8F5A6931F8021C22F442
:100E500080725A61BFF34F8FBFF36F8F4DF60272EE
:100E6000914209D09A6AD2B242B101200DF1070134
:100E7000FFF756FF0346B5E72368B3E79A6A12F413
:100E80007F4F05D001200DF10701FFF713FFF1E7B8
:100E90009B6AB3F5803FA4D3FFF7DEFEEAE70020AC
:100EA0000DF10701E4E700200DF10701EDE722F461
:100EB000FF7222F00102ADE700ED00E0044B5A6939
:100EC00042F010025A615A6922F008025A617047D2
:100ED00000ED00E0EFF30880EFF3098101B5724601
:100EE000FFF75AFF01BD00BF0B4880F3088802F0EE
:100EF00091F8102080F3118808484FF400614018E1
:100F000080F30988EFF314800221084380F31488EA
:100F1000BFF36F8F00F088F8C00F00208002002020
:100F2000084B9B6883420BD1EFF3058343B1064B1B
:100F30005A6842F080525A605A6A22F400425A6259
:100F400001F042BA5002002000ED00E011498A6829
:100F50004FF030001044EFF3098C80E8F01F1020B0
:100F600080F31288BFF36F8F0B4F4FF000664A6912
:100F70008A603E60506E094C2060906E002393663C
:100F800080F3118802F1300090E8F01F8CF309889B
:100F9000704700005002002004ED00E0F80100203E
:100FA0001EF0040F0CBFEFF30880EFF30980816996
:100FB00011F8021C0229FFD001B5724601F0FFFFB3
:100FC00001BD00BF40B2002807DB01234109034AED
:100FD00000F01F00834042F82130704700E100E03C
:100FE00040B2002801F10101ACBF00F16040064BA6
:100FF0004FEA0111C9B2ABBF00F5614000F00F002C
:1010000080F800131954704714ED00E0044B054AB2
:1010100023F07F039360BFF34F8FBFF36F8F704751
:101020000002001000ED00E008B5FFF7EFFF0B4AEB
:10103000D2F8883023F47003C2F88830EFF31483B9
:1010400023F0040383F31488BFF36F8F00F0F2FEE4
:1010500001F0DCFA00F042F800F02CFF00ED00E0B7
:1010600042F8203C009B0B4942F81C3C019B21F0BC
:10107000010142F8183C029B42F8081C42F8143C5B
:101080004FF0807342F8043C0023203A02658366E7
:10109000704700BFBD0B001000B50B4B15469860A4
:1010A000426E0A4B0E461A602C4686F309880020D1
:1010B000034B98472046002100220023014C204783
:1010C000DD2F0010BD0B001050020020F8010020A1
:1010D0001022014B1A61704700ED00E0002310213F
:1010E0000348C2180133342B82F80013F9D170473A
:1010F00000E100E008B5EFF30583064A103B02EB80
:10110000C30152F8330049688847BDE80840FFF73B
:1011100093BD00BF7C3C001008B5024B1B6898478C
:10112000002008BDFC010020034B044A186093789E
:1011300043F0020393707047FC010020040000207C
:1011400008B5054801F027FF002383F31188BFF39A
:101150006F8F0423184602DF8A40001008B5064945
:10116000064821F00701C1F1202202F5002201F01A
:10117000B8FE002008BD00BFC70F002000020020FD
:101180004FF08072074BDA61A3F54053DA69D20160
:1011900002D56FF0150070470160D86910F08070BB
:1011A000F7D1704700B00E400B2907D8DFE801F0F7
:1011B00009090909121E27062D2D3A3A4FF0FF3072
:1011C00070470C2251430368184A5B58C3F343131A
:1011D000D0567047164B1A6B1B6B13F003031FD0CE
:1011E000022B1FD0C2F34313124AF1E7104AD36B0C
:1011F000D26B920718D0104AC3F34313E8E70C4BA5
:101200000E4A9B6CC3F34313E2E70C23594301F1ED
:10121000804101F580310B68094AC3F34313D7E7D6
:101220000E2070470C20704704207047A940001022
:1012300000000140A6400010A0400010994000109E
:10124000934000102DE9F04107460C467D68214689
:1012500028463E6901F01CFF00286CD00E2C6AD88D
:10126000DFE804F00808080808082B69080831318D
:101270006B636700214628462E68FFF795FF0146FD
:101280003846FFF7DFFF0C2303FB046305465E6867
:10129000586880B2FFF7F2F82949FFF7FBF90446D6
:1012A000300CFFF7EBF801462046FFF737F8014610
:1012B0002846FFF7EFF9BDE8F08106212846FFF741
:1012C00073FF0446C2E72146D5E9023628460A2CB8
:1012D00008BF1E46FFF768FF01463846FFF7B2FF1A
:1012E0000446B068FFF7CAF82146FFF71FF9D6F8A1
:1012F0000080044608F03F00FFF7C0F80146204692
:10130000FFF7C8F9F7680446C7F30240FFF7B6F8DD
:1013100001462046FFF7BEF9F5680446C5F30230E2
:10132000FFF7ACF801462046C3E73068FFF7A6F8A0
:10133000C1E77068FAE70020BDE70248BBE700BFDD
:1013400000FF7F47001B374B2DE9F0438FB005AA04
:1013500090464468A36825680393E368266904936C
:10136000674B03F1200C174618685968083303C708
:1013700063453A46F7D11B88624A3B80624B1A604C
:10138000624A634B1360A2F54052976833EA07073D
:10139000FBD10C21042002F05BFA0C21022002F0A8
:1013A00057FA0C21032002F053FAC5F8847000F0BC
:1013B000F9FB584BDA6B22F00302DA635A6C012A0C
:1013C000FCD11A6B22F003021A639A6B012AFCD13A
:1013D000636AE269DFF84091009309FB02F2236A35
:1013E000A169039800F084FB636BE26A0093A16A31
:1013F000049809FB02F2236B00F07AFB11214046AE
:1014000001F099FE18F8170018F91710092861D98A
:101410000137112FF6D14FF4006305F540521360E8
:10142000D36005F5405205F5405593616B62D4F8E1
:10143000D81006F1180041F42A61FFF7A1FE002838
:1014400055DBD4F8DC10304641F47A0141F43041E8
:10145000FFF796FE00284ADBD4F8E010002949D0B7
:101460001F294AD801F52A4106F11400FFF788FE2A
:1014700000283CDBB4F8E410284D301D2943FFF769
:101480007FFE002833DBB4F8E61006F1080029439C
:10149000FFF776FE00282ADB6FF060421B4B1A60D4
:1014A000A3F540539D68ED4335F06045FAD12946D8
:1014B000606902AA01F015FF002807DB029B2A469B
:1014C0001979186801F020FF002801DA831C0ED179
:1014D00000200CE004EB01110B6C00934B6CD1E984
:1014E0000E1202F091F9002892D16FF015000FB0A2
:1014F000BDE8F0834AF60121B6E74FF42A41B3E78D
:10150000B83E00107F3BEFEF002002400030024069
:10151000F6FFF30300000140001BB70000009696A1
:1015200008B5074802F0E4F938B10648FFF7FCFDBA
:101530000448FFF725FB002008BD6FF01200FBE711
:101540003C3C0010491500100A2838B50446074DE8
:1015500004D1AB680D2128465B689847AB68034807
:101560005B68E1B29847204638BD00BF3C3C0010A4
:101570004FF05043084A1968084B002918BF13461A
:1015800030331A46106820B90432D11A1429F9D917
:1015900070470120704700BF90820240488202409D
:1015A00070B50D4614460669B2B91146284600F0DA
:1015B00029FB2C4B03EB850253F8253002F58051B3
:1015C00083F0800303F0C0030B604FF4807302F5D7
:1015D00000521360002070BD2846C2F34012C4F3CD
:1015E000001100F00FFB0521284600F0EFFA14F47B
:1015F00080311BD04FF0000343EC4450A303E9D5E6
:101600000123A007F26803FA05F11BD50A4360071E
:10161000F26032690ED50A4332614FF0000343ECA9
:101620004050C4F3804444EC4450D3E7284600F0D3
:1016300055FBE3E722EA0102326143EC4050C4F378
:10164000C044F0E722EA0102F26014F4002204D060
:1016500043EC405043EC4450BCE76103FAD542EC04
:101660004050F7E7048003402DE9F8434FF0504322
:10167000194A1968194B064600290CBF904698462E
:101680000024D0F81090E3080C3358F8233004F00D
:1016900007029200D3401B0704D10134302CF2D151
:1016A000BDE8F8830F21204600F0EAFAD9F80410CB
:1016B0000029F2D001270D68A7400029EDD08A68E3
:1016C0003A4002D030464B6898471DB12B682946F6
:1016D0001D46F2E72B46FAE748820240908202401C
:1016E0002DE9F047D0F810A005469AF808300F46CB
:1016F0009046D0F80490002B40F094805AB1D9F86D
:101700000020136B23F00103136343681A68D36A44
:1017100023F01003D3626B683A791B68012ADC6AF4
:1017200024F0EE0405D0022A13D022B16FF0850018
:1017300061E044F002047A79012A03D0032AF5D14A
:1017400044F00804BA79032AF0D8DFE802F007056C
:10175000151844F00604EEE744F02004FA798AB143
:10176000012AE3D11A6B42F480421A636B681A684B
:10177000136B43F400430EE044F04004EEE744F002
:101780006004EBE71A6B22F480421A636B681A68F4
:10179000136B23F4004300261363DAF80C103A6845
:1017A000334612018801890EFFF736F80346DFF849
:1017B0007CC0403B61F100029C4576EB02022ED3D7
:1017C0006B681A68830943EA816353626B6800F0AF
:1017D0003F001B689862BFF35F8F30466B681B68E1
:1017E000DA6ADA626B681B68DC623B68CAF8003050
:1017F0007B68CAF80430B8F1000F0ED099F81C309D
:101800002BB96B681A68D36A43F01003D3626B6814
:101810001A68136B43F001031363BDE8F0876FF0A0
:101820001500E8E76FF08500F7E700BF80FF3F0095
:101830004FF0E02310B50F499C691A6908689B694D
:101840000D4902F4803234B993B903464AB90A68A3
:101850001044C01A10BD002B08BF03460AB9A342AA
:10186000F5D90A6802440A604FF0E0221269EEE7F7
:101870000446F3E7240200202002002010220A4B35
:10188000002083F8232043F69822084B1A60084B67
:1018900043F6972218604FF0E0235A6198611A6965
:1018A00042F007021A61704700ED00E024020020B8
:1018B00020020020684620F007018D4619B5FFF789
:1018C000B7FF1149114B0868D3E90042001942F1F2
:1018D0000002C3E9000200230B6043F698230C4A80
:1018E000D2E90041001BB0FBF3F043431B1941F167
:1018F0000001C2E9003100F063FFFFF79DF9BDE888
:1019000019408546704700BF20020020800000205B
:10191000780000202DE9F041DFF8E08099B1421C09
:101920000BD14FF0E022136923F0010313614FF054
:101930007F43C8F80030BDE8F081D8F80060012886
:1019400007DC00270BE0431CD8F80060F7D140F219
:101950005D4040F25E439842A8BF1846471EEFF331
:101960001185102383F31288BFF36F8FFFF760FF99
:101970004FF0E023224C9969D4E9002380184FF0FE
:10198000000243F10003C4E900031E4B1A601E4B22
:101990001A68831A2ED443F6982C0CFB073303F5F0
:1019A0006A531733B3FBFCF7131A0CFB0733B3F579
:1019B000806F38BF4FF48063144A934228BF1346A8
:1019C0004FF0E022C8F80030013B906953610023DA
:1019D00081429361A1EB000338BF9B19D4E9001247
:1019E0005B1842F10002C4E9003285F31188BFF3AD
:1019F0006F8FA0E74FF48063E2E700BF240200206E
:101A000080000020200200207800002038A9FF007C
:101A100038B5EFF31185102383F31288BFF36F8F6E
:101A2000084B1C68084B1B68E41AFFF701FF85F39D
:101A30001188BFF36F8F43F698232044B0FBF3F077
:101A400038BD00BF8000002078000020F0B50C24D5
:101A5000444304F1804404F58034059E9446626852
:101A6000071FB242FFB238BF6660012F04F5405233
:101A700019D8012917D103251560A268D207FCD512
:101A8000226804F5805582EA4C1202F0E0022A60D6
:101A900022684A4002F003022A6001228A40A168BB
:101AA0001142FCD018E04FF4006515600F4D55F859
:101AB00020203AB16D69B5FBF2F5013505EB45051E
:101AC000033DFDD2226804F5805582EA4C1202F0F3
:101AD000E002012F2A60DBD94FF4006104F50052C7
:101AE0001160024A666042F82030F0BD28020020F2
:101AF000F8B5264E264F274D1644BE42B5FBF1F5EC
:101B0000069C01D901F07EFAB2FBF5F2A2F11005B4
:101B1000B5F5987FF6D85D1E062DF3D8651E062D07
:101B2000F0D8240344EA03430468002C0EDA046866
:101B300004F03F048C4209D18468C4F30B0494423E
:101B400004D1C46804F4EE249C421DD0124D01243B
:101B5000A8420CBF0F250E25AC40104D104E2C6036
:101B600005F580552C60B56834EA0505FBD10160A8
:101B70002121826000F54052043211600168002981
:101B8000FCDAC36008231360F8BD00BF80E84BD3C4
:101B900080F8A932001BB7000080054000200240F9
:101BA000000002404FF42A62054B06491A602F22BA
:101BB000DA60054A11605A68002AFCDA704700BFF3
:101BC0000080044000B0FA0000A0044010B50C4BA7
:101BD00003EB800253F8203002F5805483F0400379
:101BE00003F0C00323604FF48073C00000F1804015
:101BF00000F5203002F540524160136010BD00BF77
:101C00000480034010B5074CC90004EB800354F86E
:101C1000200041EA8201414001F00C0103F58053AC
:101C2000196010BD04800340054B03EB80000223C4
:101C300019B100F500500360704700F54050FAE715
:101C400004800340054A02EB800352F8202003F58C
:101C50008053514001F00101196070470480034036
:101C6000064B03EB800253F8203002F5805283EAE2
:101C7000011303F030031360704700BF048003407A
:101C8000C30800F00700034A800081408C3342F80B
:101C90002310704700800240F8B54FF050430646CD
:101CA00017460C4C1A680C4B0D46002A18BF1C46F0
:101CB000FFF7E6FF06F007039B00F60805FA03F3BB
:101CC00004EB86001FB100F500500360F8BD00F57D
:101CD0004050FAE74882024090820240054B03EBF5
:101CE0008000402319B100F500500360704700F5F3
:101CF0004050FAE7048003404FF0E022044BD2F852
:101D0000881D0B43C2F8883D10EE3004704700BFB9
:101D10000303300038B5EFF31185102383F31288E5
:101D2000BFF36F8F064B9C6801F0F5FD85F31188BA
:101D3000BFF36F8F2046BDE83840FFF7F1B800BF12
:101D40005002002038B50A4B53F82040013053F8B8
:101D50002050A54200D838BD606830B1037FDB0752
:101D600001D401F0DBFD0834F3E723689847FAE774
:101D700004400010012270B5294B032086B01A7070
:101D8000FFF7E0FF00F092FD0420FFF7DBFF254C9A
:101D9000254D2646AE4204F1300410D300F01AFA65
:101DA000204C224EAC4226D300F028FAFEF79CFECF
:101DB0001F4A137B23F00103137306B070BD54F860
:101DC0000C3C059354F8103C049354F8143C0393D2
:101DD00054F8183C029354F81C3C019354F8203CEE
:101DE000009354E90A2354E90C0100F0BFF854F8B9
:101DF000303C5E65CDE7D4E90A23B3F1FF3F08BF6D
:101E0000B2F1FF3F05D052EA0301206803D100F090
:101E1000B1FA3034C6E73146183000F041FCF8E73B
:101E20007C0200201C3E00101C3E0010E539001012
:101E3000F800002008B50348034A0021121A01F0F7
:101E400084FD08BD7800002080020020702370B55A
:101E5000134E012203FB0066002386B0CDE9042364
:101E60000F220193CDE9023214234FF4A0720D4DDD
:101E70000D4903FB0055044602FB00110B4B304695
:101E8000009500F073F8737B2C7423F004037373D4
:101E9000074B013403EBC423EE606B6006B070BDEA
:101EA0008800002050020020800A002053390010D2
:101EB00080020020BFB50020FFF744FF234B83F3CF
:101EC00008880024F023224D224F85F82230EC7739
:101ED0002C766C76AC766B6A43F4E0236B62FEF78B
:101EE000EDFFFFF7F5F84FF0FF331B48AB62EB62F5
:101EF00000F074F801F0FBFC0120FFF723FF022043
:101F0000164DFFF71FFF00F0ADF9154B15495D6148
:101F1000154B4FF48062059301232846CDE9034316
:101F2000CDE901443B46009400F020F806466A7B68
:101F3000284622F004026A7301F028FD2046FFF7CC
:101F400085FF3A4631462846FFF7A6F8800A00206A
:101F500000ED00E0751D001068010020F800002071
:101F600050020020C00B0020014100102DE9FF416C
:101F7000984600F15803C0E916330E9B0026037300
:101F80000423D51D437325F007050D9B0D440F4613
:101F900083732946C0E906668660C6730446FEF769
:101FA0002BFE0C9B073002930B9B20F00700019344
:101FB0000A9B2D1A00932A46434639462046FFF7CE
:101FC0004FF8054B66659B6803B11B6E2846236678
:101FD00004B0BDE8F08100BF5002002040F20113C0
:101FE000838100230366014B9860704750020020F4
:101FF0006FF00A01084A9368D966084998664B68E9
:1020000043F080534B60002383F31188BFF36F8F3D
:102010009368D86E704700BF5002002000ED00E0CA
:1020200070B590F90D20437B002A36DBD90634D1F8
:102030001B4C63F07F032246437352F8183FE1695B
:10204000934207D1C0E900210860E06111E09942A4
:10205000F8D01B68002BF5D090F90E5093F90E6064
:10206000B542F4D0AE42F2DD5968C0E900310860F3
:102070005860A569954200D005B9E568A3685A7B08
:10208000D20604D1DA897F2A01D9AA6932B1AB42DA
:1020900002D0284600F062FA656170BD6361FCE71A
:1020A0005002002038B590F90D200146002A437BEC
:1020B00004DA03F07F03437301F056FC0D4D2A460A
:1020C00052F8184FAB68944200D004B9EC688B42C8
:1020D00007D05A7BD20604D1DA897F2A01D9A269B6
:1020E0002AB1A34202D0204600F038FA23466B61A1
:1020F00038BD00BF5002002070B590F90D20014698
:10210000002A437B04DA03F07F03437301F02CFCC5
:102110001C4C4B7B224663F07F034B7352F8183FF5
:10212000E069934207D1C1E900200160E16111E05B
:102130009842F8D01B68002BF5D091F90E5093F916
:102140000E60B542F4D0AE42F2DD5868C1E900300D
:1021500001605960A569A368954200D005B9E5689A
:102160008B4207D05A7BD20604D1DA897F2A01D963
:10217000AA692AB1AB4202D0284600F0EFF92B46FB
:10218000636170BD5002002049B9EFF3058030B99A
:10219000054B5A699B689A4201D0FFF729BF81F32A
:1021A0001188BFF36F8F704750020020034648B973
:1021B000EFF3058232B9064A51699268914201D023
:1021C000FFF716BF83F31188BFF36F8F704700BF0F
:1021D00050020020EFF31181102383F31288BFF324
:1021E0006F8F054B9A68D37B013BD37381F31188C2
:1021F000BFF36F8F704700BF5002002070B5EFF340
:102200001186102383F31288BFF36F8F144DAB68D0
:10221000DA7B0132DA732A4652F8184F944200D022
:1022200004B9EC685A7BD20604D1DA897F2A01D935
:10223000A2692AB1A34202D0204600F08FF92346BA
:102240006B6186F31188BFF36F8FEFF3118010235A
:1022500083F31288BFF36F8FBDE87040FFF7A6BF0E
:1022600050020020024B03F11802C3E90622704716
:102270005002002070B5EFF31186102383F312880B
:10228000BFF36F8F1B4CA168E0690B68814214BFDC
:102290001A46002249680B605960A368E1692AB9AF
:1022A000154AC3E900210B60E3610CE093F90E00CD
:1022B00092F90E50A84218D0854216DD5168C3E944
:1022C00000210B605360A5690B4B9D4200D005B9FE
:1022D000E568A3689D4202D0284600F03FF9656199
:1022E0003046BDE87040FFF783BE8A42D8D01268FE
:1022F000D5E700BF5002002068020020F8B550EA80
:10230000010306460C4603D1FFF7B4FF0020F8BDD9
:10231000EFF31187102383F31288BFF36F8F124DF1
:10232000124BA8681860FFF7BDFEA8682346324626
:102330000F49183000F0B4F9AA680446537B3846B8
:1023400043F004035373FFF753FEAB68D3E90A234A
:10235000B3F1004F08BF002AD8D101F0AEFB201A1C
:1023600020EAE070D3E700BF500200207002002096
:10237000E539001038B50446EFF31185102383F3D7
:102380001288BFF36F8F437B5B070FD5183001F0C6
:102390006CFB637B204623F004036373FFF740FE6E
:1023A0002946BDE838400448FFF7EEBE85F31188A2
:1023B000BFF36F8F38BD00BF7D020020014B9868CE
:1023C000704700BF500200202DE9F8430446077B08
:1023D000EFF31185102383F31288BFF36F8F437BD4
:1023E000190705D585F31188BFF36F8FBDE8F88312
:1023F000D90943F008025AD14273A36813B12046A9
:1024000001F0BAFA04F1180001F02FFBA66D04F1F7
:102410005808B04511D04FF0000976B1304601F0B0
:10242000ABFA06F1180001F020FB3046C6F86C90BC
:10243000FFF7F6FDA66DB045EFD1DFF8B880D8F80C
:1024400008309C423BD1EFF30589B9F1000918BF70
:102450004FF00109D8F81860274A964200D00EB90B
:10246000D8F80C60B34202D0304600F077F8C8F8D4
:102470001460B9F1000F02D02048FFF7AFFDD8F883
:1024800008309C4231D1EFF3058373BB227BD20726
:1024900018D42846FFF7ACFDFB07A7D5002383F32C
:1024A0001188BFF36F8F0423184602DF9EE703F005
:1024B0007F0343F00803437301F056FA9DE74FF0A2
:1024C0000009C7E785F31188BFF36F8F83F3118885
:1024D000BFF36F8F0423184602DFEFF31180102340
:1024E00083F31288BFF36F8FD4E785F31188BFF3AE
:1024F0006F8FD1E7500200206802002068010020A1
:102500000122044BC01A044BC0105843034B1A5409
:10251000704700BFD8010020ABAAAAAA7D02002004
:10252000C3897F2B12D80A4B1B6863B1094B90F902
:102530000E201B689A4209DB437BDB0606D1064B63
:10254000C31A18BF012303F0010070470023FAE704
:1025500060000020740200208800002070B50E4B3F
:102560000E4C1E7C182303FB06440546204601F052
:102570007CFA00220A4B28469A55FFF7D1FF48B152
:10258000084B2046BDE870401A680749013AD31746
:1025900000F086B870BD00BF50020020D8010020B6
:1025A0007D020020600000200125001038B5EFF307
:1025B0001185102383F31288BFF36F8F104B114ADC
:1025C0009C681068A04206D1FFF7C8FF85F3118808
:1025D000BFF36F8F38BD00211B7C11600A4AD35CAA
:1025E000002BF3D02046FFF79BFF0028EED0637B43
:1025F000DB0602D12046FFF77FFD2046E4E700BF5F
:1026000050020020700200207D020020074808B51B
:10261000074A0849121A01F09AF9BDE8084006482D
:10262000064A0749121A01F092B900BF00000020C3
:102630007400002040410010000000200000002035
:1026400040410010024B1868984208BF00207047B4
:1026500064000020034B1B680BB9FFF7D9B90020B9
:10266000704700BF7802002030B570B10B4B5B683B
:1026700098420AD0036843B1D3E90421D0E9044564
:10268000121941EB0501C3E90421D0E900321360BE
:102690005A600023C0E9003330BD00BF6400002051
:1026A000B3F1FF3F08BFB2F1FF3F2DE9F84F0446F9
:1026B000994615461F467AD08160EFF311881023A2
:1026C00083F31288BFF36F8FB9F1000FDFF8E4A036
:1026D00020DBFFF7BFFFDAE90027013549F10009E8
:1026E0002D1849EBE07306464FF00109C4E9045385
:1026F000AD1843EB0707FFF7A5FF0346DFF8B8E087
:10270000DEF804A0EBB9C4E900EACAF80040CEF84C
:10271000044028E06FF00103DAE900125B1A4FF081
:10272000FF3161EB02025B1B62EB0902012B72F1CC
:102730000001BCBF012300224FF00009C0E90432B0
:10274000D9E7D3E9041CD4E904208A4270EB0C0BCE
:1027500024DA891A5A686CEB0000C3E90410C4E952
:10276000003214605C60FFF76DFF84420ED1134BA2
:102770001B685BB9B9F1000F02D1FFF76BFF06468A
:10278000304601F05BF90021FFF7C4F888F31188A7
:10279000BFF36F8F28463946BDE8F88F521A60EBB9
:1027A0000C009A45C4E90420ADD01B68AAE70025B7
:1027B0002F46EFE7F001002064000020780200209F
:1027C0002DE9F047EFF31185102383F31288BFF34F
:1027D0006F8FDFF8A0900026C9F800000027FFF7F0
:1027E00031FFDFF89480D9F80030D8E900ECD91730
:1027F00050B1D0E90442A34271EB020A1BDAE41A99
:1028000062EB0102C0E90442002413EB0E034CEB1F
:1028100001012046C8E90031C9F8004001F00EF975
:102820002146FFF777F885F31188BFF36F8FBDE876
:10283000F047FFF7BBBE14EB0E024CEBE473C0E9AC
:102840000467C8E90023FFF70FFF85F31188BFF382
:102850006F8F83689847EFF31185102383F31288F5
:10286000BFF36F8FD9F800301B1BC9F80030FFF79A
:10287000E9FEB8E778020020F001002010B5EFF380
:102880001184102383F31288BFF36F8FFFF7E2FEEA
:102890000346054AD2E90001181841EBE37184F3BD
:1028A0001188BFF36F8F10BDF0010020014800F0C8
:1028B00072BB00BF064100100FB407B504AA064B57
:1028C00052F8041B1868019200F028F803B05DF874
:1028D00004EB04B0704700BFDC3E0010F8B50E4BAF
:1028E00006461D68AB789B0712D56F6816F8014B3A
:1028F00029462CB90A20B847002805DB204609E004
:102900002046B8470028F1DAAB7843F00403AB70F7
:102910004FF0FF30F8BD00BFDC3E00102DE9F04F56
:1029200043688DB015468046029383789A0740F13C
:102930000D8100240E78002E00F00A81252E0BD088
:102940004B1C0393013441463046029B98470028B4
:10295000C0F2F6800399EDE74E788B1C252E039389
:10296000F0D00027B946BB46BBF11F0F38D8A6F1FF
:102970002003102B0AD8DFE803F02A0909300909DF
:10298000092109090928092D09091F00A6F13003A9
:10299000092B33D92A2E37D11BF0400F55F8043BB1
:1029A00040F08280002BA7BF4BF0200B9946C3F16B
:1029B00000094BF0280B01E04BF0010B039B13F8CF
:1029C000016B0393002ECFD130E04BF0020B4BF0A4
:1029D000040BF3E74BF0080BF0E74BF0100BEDE7BF
:1029E000BBF17F0F19D8A6F13003092BD2D81BF009
:1029F000400F03D00A2101FB0737DFE70A214BF024
:102A0000200B01FB0939D9E72E2E06D11BF0400F10
:102A100040F09E804BF0400BD0E76C2E31D02BD88D
:102A2000682E36D06A2E3CD04C2E3AD0002F46F07D
:102A30002003B8BF2BF04002A3F16501BCBF002703
:102A40001FFA82FB022901D9612B2FD107350727F5
:102A5000DFF8ACA225F0070508351BF0080F66D09B
:102A60000AEB070B56465E4563D1A4EB0A0AA9EBB5
:102A7000070906EB0A026FE1742E9FD07A2E9DD0D3
:102A8000D4E71BF0800F18BF4BF4007B4BF0800B9A
:102A900094E71BF4807F18BF4BF4007B4BF4807BE2
:102AA0008CE74BF4207B89E71F4687E7A6F163019B
:102AB000122900F2F080DFE811F013004F00EE0061
:102AC000EE00EE00EE004F00EE00EE00EE00EE0035
:102AD000EE00FE00E900EE00EE001B00EE00AF008D
:102AE00055F8043B01270DF1180A8DF81830B4E7AA
:102AF00055F804AB834BBAF1000F08BF9A461BF0A0
:102B0000400F504614BF39464FF0FF3100F0EEFF42
:102B10000746A2E741462020029B984700280FDB8A
:102B2000013EB742F6D34C44B146A41B98E74E464B
:102B3000F7E7414616F8010B029B9847002892DA06
:102B400098F8023043F0040388F802304FF0FF3465
:102B500020460DB0BDE8F08F1BF0800F34D01BF481
:102B6000007F2CD0073525F00705AA4669685AF87A
:102B7000080B2BF010050029ADB237DA404245F4BE
:102B8000806561EB41010DF1180B0A235A4600F0F4
:102B9000B9FFA0EB0B0301936B0662D5019B25F0F7
:102BA00001019F4289B240F3A180002E00F099807C
:102BB00015F0100240F09C80BB460D4623E0AA466B
:102BC0005AF8040BC117D4E7AA461BF4807F5AF8C1
:102BD000041B01D10846F5E71BF4007F19BF48B27A
:102BE00041F3C01108B241F3C031C2E750EA01031A
:102BF000C9D11BF0400FC6D0002FC4D12BF0110259
:102C0000BB46019795B240F2064115EA01021CBF8E
:102C10000BF1010B00222CE02BF010020A231FFA0B
:102C200082FB1BF0800C49D01BF4007115BF0735E7
:102C3000AA4625F007055AF8040B1EBFAA46696884
:102C40005AF8080B50EA010545D12BF016051BF088
:102C5000400FADB242D0002F40D12BF017020197A8
:102C600095B215F0100248D0019B002E42D103F11D
:102C7000010B29075AD4EB0706D5D9456FDDA9EB1F
:102C80000B030199CB465F185B4649E04BF0100BF4
:102C900010237826C5E7782B04D1C6F1780343F0DA
:102CA0001003BEE741462520029B98470028FFF607
:102CB00047AF023447E608230026B2E7AA461BF4D2
:102CC00080715AF8040BBDD01BF400711ABFC0B25A
:102CD000614680B2B6E72BF0060295B20DF1180BF3
:102CE00054E725F01105BB46ADB28CE70D46B8E7B9
:102CF0003B460D4603F1020BBBE7DDF804B082E76B
:102D0000354100102E410010CDE90432414620200B
:102D1000029B98470028FFF613AF049B059A0133E6
:102D20009945F1DCA4EB0B019B46CC180AB3414654
:102D30003020029B98470028FFF602AF8EB901347D
:102D40002744391B019B994224DC1D4655BB019A3F
:102D5000A9EB0B09554622441446914433E0019FE8
:102D600092E7023441463046029B98470028E7DA52
:102D7000E6E640F206410D42E2D015F0020F04F102
:102D80000104414614BF2B20202015F4806F18BF8A
:102D90002D20E9E741463020029B01349847002866
:102DA000CFDACDE606AB013D4146585D029B984720
:102DB0000028CBDAC4E641462020029B0134984724
:102DC0000028FFF6BDAEA9EB0403002BF3DCC1E540
:102DD0007047836800EBC101B3F5004F2CBF51F879
:102DE000220031F81200704700EBC1018068B0F595
:102DF000004F2CBF41F8223021F8123070470122D9
:102E000008B5FFF7E6FFD04008BD836800EBC101BD
:102E1000B3F5004F08D34B681AB143F001034B6080
:102E2000704723F00103FAE74B881AB143F001031E
:102E30004B80704723F00103FAE753000122FFF7AC
:102E4000D3BFB0F5004F34BF04230823481C083318
:102E5000A0EBD300B0FA80F0C0F11F0070472DE95D
:102E6000F0410D4686680446FFF7C9FFB6F5004FEE
:102E7000014601D3012832D03046FFF7E2FF04EBD0
:102E800080010E6996B90122E36882401343E36032
:102E900002220D612B4629462046FFF7A5FF03229B
:102EA00029462046BDE8F041FFF79EBF0222314689
:102EB0002046FFF78EFF0746034629462046FFF7C8
:102EC00093FF0322334629462046FFF78DFF3946FC
:102ED0002B462046FFF788FF02223146E1E7BDE896
:102EE000F081B2F5802F2CBF082304232DE9F04197
:102EF0000026D21A8C18CD1D25F0070524F00704F2
:102F0000641BE408056021462046AC60EE60FFF7D4
:102F100098FF421D9200013002F107074FEAD707E0
:102F20003146A2F1100205F11000B8BF324600F0A0
:102F3000D5FD3A4631462846FFF77FFF33463246F5
:102F400031462846FFF750FFA4EB070828463146D4
:102F50000122FFF75AFF42463946FFF76EFF3B4614
:102F6000324639462846FFF73FFF21462846FFF7FD
:102F700064FF4346324621462846FFF735FF214687
:102F800028460122FFF741FF3946BDE8F041FFF72F
:102F900066BF002070470FB407B504A951F8040BB1
:102FA0000191FDF7F3FD03B05DF804EB04B0704749
:102FB0007047012801D1EFF30583FEF7ABBE014650
:102FC0000068FFF7F6BF08B5FDF712FEBDE8084040
:102FD000FDF732BE00210120FFF7EBBF61B662B6FC
:102FE00080F31188BFF36F8F704772B6002383F3AD
:102FF0001188BFF36F8FBFF34F8F30BF62B6BFF33F
:103000006F8F704708B5FEF79BF808B5FEF784F898
:10301000002008BDFEF770BE49B21029436816DCD7
:103020000A290BD00B2910D00C221B6802FB01339C
:103030004FF4006203F500531A6004E09B682D22F0
:1030400003F540535A6000207047DB68F7E76FF0E4
:103050001500704749B21029436816DC0A290BD0C5
:103060000B2910D00C221B6802FB01334FF40062C5
:1030700003F540531A6004E09B682D2203F50053CA
:103080005A6000207047DB68F7E76FF01500704763
:10309000CBB20246181F01282ED90B290BDC0929B7
:1030A00019DC092B2AD840F24F3020FA03F313F031
:1030B000010009D170470C2919D0A3F10D00012896
:1030C0008CBF00200120704713680C2251435858D0
:1030D000C0F3C0207047D2E902030A2908BF0346A3
:1030E0005B6813F0290F0CBF012000207047536864
:1030F0005868C0F3003070470120704700207047C7
:1031000049B2102908B505DC4068FFF7C1FF01305E
:10311000C0B208BDEA20FCE749B2102910B5144638
:1031200006DCFEF78FF8FDF751FB2060002010BD94
:103130006FF01500FBE7F0B500254FF0FF362B468A
:103140008B421DD21A4600EB430494F90170B7423A
:103150000DD100EB430710F913C097F9017030F857
:1031600012E020F813E000F812C00133677001325A
:10317000914204F10204E8D110F915600135DFE74E
:10318000F0BD10EE183000200B6070470269D36864
:1031900021EA030040EE10001940136901EA03021E
:1031A00060EE142021EA030140EE14100020704765
:1031B0000269D36821EA030060EE10001940136928
:1031C00001EA030240EE142021EA030160EE14102C
:1031D000002070470369DB6821EA030220EE10201B
:1031E0000B4020EE14300020704710B5036958687A
:1031F000F8B1884219D19C680868A142586000D192
:103200009860002008602AB15A680A609A6859607C
:1032100002B99960002010E0814206D10868206060
:1032200098688142EDD19C60EBE704460068002875
:10323000F2D1002AE8D16FF0150010BD08B543683F
:103240005B6803B19847002008BD70B50D4616466F
:103250000F21002228461C46FEF71EFDB6F5001F72
:103260000DD0F20104F08063C4F3406109D58900F8
:103270000BB141F0080101222846FEF70DFD0020A8
:1032800070BD002BF7D041F00201F4E708B515201E
:1032900000220721FDF7A4FEBDE808401520FDF738
:1032A00091BE30B50569EB6810EE104021EA0300CD
:1032B0005440204020EE100019402C6910EE1400FC
:1032C000504001EA040323EA000320EE143010EE1C
:1032D000143021EA04015A40114020EE141000205D
:1032E00030BD30B5036813600579046804EBC5048C
:1032F000A34202D36FF0010030BD5C798C4201D053
:103300000833F0E70020F7E770B5044600EB8105CD
:10331000AC4201D1002070BD264616F8040B00F027
:103320001F0000F0DBFA21882078C1F3441100F07F
:103330001F00FEF74BFCA2786178207802F00102B2
:10334000C90900F01F00FEF75DFC61782078C1F329
:10335000830100F01F00FEF783FC61782078C1F341
:10336000801100F01F00FEF76DFCA1782078C1F3FA
:10337000800100F01F00FEF757FCA1782078C1F310
:10338000400100F01F00FEF7A9FCA1782078C1F3EE
:10339000C10100F01F0000F092FAA1782078C1F37B
:1033A000411100F01F0000F07BFA61882078C1F322
:1033B000C11100F01F0000F064FAE1782078C1F339
:1033C000410100F01F0000F04DFA3446A0E7002054
:1033D000704783680079022808D0042809D00128A2
:1033E00009D1CB5CDBB2002013607047CB5A9BB293
:1033F000F9E7CB58F7E76FF0150070472DE9F74371
:1034000047680D463E7990464FEAC609B1FBF9F48C
:10341000384601AAA1B2FFF7DCFFA0B9012309FBDE
:1034200014557A790199EDB2AB40424514BF194366
:103430009943022EBB6809D0042E0BD0012E0CD16B
:10344000C9B2A4B2E15403B0BDE8F08389B2A4B21A
:10345000E152F8E7A4B2E150F5E76FF01500F2E7AA
:103460000122FFF7CBBF0022FFF7C8BF38B50446E3
:103470000D46FFF7F5FF28B929462046BDE838403C
:10348000FFF7F1BF38BD2DE9F34146680C463779A7
:103490001546FF00B1FBF7F8304601AA1FFA88F184
:1034A000FFF797FF68B907FB1844019BE4B2E340BC
:1034B000DB43727903F00103002A08BF83F00103A4
:1034C0002B7002B0BDE8F08102694368127A1B6874
:1034D0002AB91A6BD2070DD51A6B92050AD59A69CB
:1034E000D20607D41B680B7043681B68586800F04D
:1034F0000F0070474FF0FF30704743681B689A69B0
:103500009206FCD41960704743681B6858685A6873
:10351000C0F3C00051075A685B6848BF40F008001C
:10352000920748BF40F00200DB0748BF40F00400AC
:1035300070470B46026992E8030083E8030000200D
:1035400070470346002030B55C682468A569AD0665
:1035500002D4151A002D00DC30BD0D5C0130256051
:10356000F2E70346002030B5141A002C04DD5C6835
:103570002468A569ED0600D530BD24680C540130DF
:10358000F2E7F8B5436805691A680446936B43F09F
:10359000200393632B7C4BB100232B746B692BB1FD
:1035A000102663681B689B6B9B0600D4F8BDEFF385
:1035B000118786F31288BFF36F8F2046D5E9053156
:1035C000984787F31188BFF36F8FEAE701220369F9
:1035D0001A7443681A68936B23F02003936370474F
:1035E00043681B68986980F00800C0F3C00070470A
:1035F00002694368127A1B681AB9186B10F480705C
:103600000BD0986B10F0200007D0DA6B920603D431
:103610009869C0F3C01070470120704743681A686A
:10362000936B43F050039363704743681A68936B3E
:1036300023F050039363704702694368127A1B6852
:103640001AB9186B10F4007008D0986B10F01000C5
:103650001EBF986980F01000C0F3001070474368E7
:103660001A68936B43F4F0639363704743681A6876
:10367000936B23F4F0639363704708B50146FFF73B
:10368000DBFF30B90846FFF7B3FF003818BF012051
:1036900008BD0120FCE7012070470369C3E905125A
:1036A000704710B503695A696AB1EFF311841022AB
:1036B00082F31288BFF36F8FD3E90521904784F31B
:1036C0001188BFF36F8F10BD002070470020704736
:1036D00008B5212000220721FDF782FCBDE8084043
:1036E0002120FDF76FBC0122FDF7FABFF7B5456851
:1036F00004460669A86800285ED12869002864D1BC
:10370000377A002F31D13946686801AAFFF7E9FD01
:10371000002858DB019B3A4619791868FFF7F4FD39
:10372000002850D16B6A03B1984763681A68136B1D
:1037300023F00103136363681A68D36A23F010034C
:10374000D3622B6A002B4FD1002231462046FDF771
:10375000C7FF102263681B685A632B7F2BB963680D
:103760001A68D36A43F01003D362002263681B68AF
:103770009A6340F2FF7263681B685A64337A93B9A4
:10378000626812689364BFF36F8F63681A68136B83
:1037900023F00203136363681A68136B43F44073E6
:1037A0001363BFF36F8FAB692046984701233374CF
:1037B000337AFBB1002006E0E9688368DB6803B375
:1037C0009847002899D003B0F0BD836869691B68E9
:1037D00003B19847D5E90401836806F10C02DB6860
:1037E000002B8DD098478BE72046F168984700283A
:1037F000AAD0E8E763681A68136B43F00103136308
:10380000D8E76FF05700DEE72DE9F74390460A9AB4
:10381000064693420F4601D2FFF7F4FB4FEA1349E5
:103820001C04204600234946FCF7F6FF002305460A
:10383000024649462046FCF7EFFF4246034639461A
:1038400030460095FEF702F9012003B0BDE8F08391
:103850000C235843012300F1804000F5841041609F
:1038600003607047C00000F18040043000F5203351
:103870001B6800F5243083EA017303F040530360B2
:103880007047C00000F18040043000F520331B6811
:1038900000F5243083EA014303F4403303607047AA
:1038A000C00000F18040043000F520331B6800F5B3
:1038B000243083EA013303F4405303607047C000AF
:1038C00000F18040043000F520331B6800F52430FF
:1038D00083EA813303F44043036070474FF00002F2
:1038E00042EC440042EC40000521FEF76FB97047FE
:1038F00040B1C368587810F001001EBF1878B0FAC4
:1039000080F040097047EFF31183102383F312888E
:10391000BFF36F8FFEE708B5FFF7F5FF10B54369FA
:10392000044633B90020E268537843F00103537032
:1039300010BD98470028F5D00028B8BF4042FF28A6
:10394000A8BFFF20E3681870EDE700F0C7B800F0EB
:10395000B8B8102408B5EFF3118384F31288BFF3CD
:103960006F8FFFF742FBF6E7D0E9003213605A6031
:103970000023C0E90033704708B5FFF7F5FF437B2C
:1039800023F0020343730023836008BD10B5EFF3F7
:103990001184102383F31288BFF36F8FFEF740FB6F
:1039A00084F31188BFF36F8F10BD014610B5EFF39C
:1039B0001184102383F31288BFF36F8F437B13F0BE
:1039C000280F0AD183680BB1FFF7D6FF4B7B08465F
:1039D00023F004034B73FEF723FB84F31188BFF33A
:1039E0006F8F10BD01211838FFF7DFBF38B50446CF
:1039F0000D46FEF783FCB5F1FF3F08BFB4F1FF3F72
:103A00000346204614D013F109004FEAE37141F157
:103A100000010A2871F100030BD36FF00A038342FF
:103A20004FF004038B4106D30A220023FCF7F4FE77
:103A300038BD0020FCE76FF00040F9E708B502460A
:103A4000FEF700FE70B1D0E904319B1A61EBE2721F
:103A5000B3F1004F72F1000104DA002AACBF18463E
:103A6000002008BD6FF00040FBE7024638B5EFF3D9
:103A70001185102383F31288BFF36F8F0368CBB1D6
:103A8000FEF7E0FD04461046FEF7EEFD00224FF083
:103A900000438442C0E9042306D1FEF7DBFDFFF7B3
:103AA000CDFF0021FDF736FF002085F31188BFF31D
:103AB0006F8F38BD6FF01500F7E708B5FEF7DEFE33
:103AC00008BD0A44431E914200D1704710B511F859
:103AD000014B914203F8014FF9D110BD0244034656
:103AE000934200D1704703F8011BF9E702460144F5
:103AF00010B58A42134603D01C780132002CF8D14D
:103B0000181A10BDF0B5C3F13707044603F01F03C0
:103B10001046FFB2082BE6B232D0102B3DD065081C
:103B2000A40845EAC17544EA81748A082D1942EB5C
:103B30005102290941EA02716D1842EB1212290A59
:103B400041EA02616D1842EB1222290C41EA02415E
:103B50006D1842EB1242AD1842F10002EC0844EA43
:103B60004274D10804EB8402A6EB4205EDB2092DA4
:103B70000CD90134A5F10A0541F10001EDB212E0C2
:103B8000E40806F0070544EA4174C908303554EAF0
:103B9000010200F8015BBDD1F0BD240906F00F055C
:103BA00044EA01740909092D84BFED19EDB2EDE76E
:0C3BB0000148006870470000F801002088
:083BBC0090CCFF7F0100000026
:103BC40000000000FC3B0010000000001C3C001042
:103BD400000000003C3C0010211500100000000013
:103BE4007D180010000000005D11001000000000AE
:083BF400000000005C3C001021
:103BFC00B3400010E03E0010503E00106C0000205E
:103C0C001400002049130010000000000000000008
:103C1C00D9400010E03F0010403E00107000002022
:103C2C0000000000CF330010000000000000000076
:103C3C00F3400010380000206C3E00107200002091
:103C4C001C000020ED3600100000000000000000F9
:103C5C00CD400010D83F00101C3E00106E0000201C
:103C6C000C0200203D32001000000000000000009B
:103C7C0000000000D52F001000000000D52F001010
:103C8C0000000000D52F001000000000D52F001000
:103C9C0000000000D52F001000000000D52F0010F0
:103CAC0000000000D52F001000000000D52F0010E0
:103CBC0000000000D52F001000000000D52F0010D0
:103CCC0000000000D52F001000000000D52F0010C0
:103CDC0000000000D52F001000000000D52F0010B0
:103CEC0000000000D52F001000000000D52F0010A0
:103CFC0000000000D52F001000000000D52F001090
:103D0C0000000000D52F001000000000D52F00107F
:103D1C0000000000D52F00105C3C0010691600104C
:103D2C0000000000D52F001000000000D52F00105F
:103D3C0000000000D52F001000000000D52F00104F
:103D4C0000000000D52F001000000000D52F00103F
:103D5C0000000000D52F001000000000D52F00102F
:103D6C0000000000D52F001000000000D52F00101F
:103D7C0000000000D52F00103C3C0010A3360010B2
:103D8C0000000000D52F001000000000D52F0010FF
:103D9C0000000000D52F001000000000D52F0010EF
:103DAC0000000000D52F001000000000D52F0010DF
:103DBC0000000000D52F001000000000D52F0010CF
:103DCC0000000000D52F001000000000D52F0010BF
:103DDC0000000000D52F001000000000D52F0010AF
:103DEC0000000000D52F001000000000D52F00109F
:103DFC0000000000D52F001000000000D52F00108F
:103E0C0000000000D52F001000000000D52F00107E
:103E1C00A115001083310010A33200108D31001059
:103E2C00B1310010D53100104B320010EB310010C5
:043E3C0071150010EC
:103E40008734001061340010673400106D340010A6
:103E5000193000105530001000000000193100101A
:0C3E600001310010000000000000000014
:103E6C00C9340010FB34001009350010E73600107F
:103E7C0033350010433500106335001083350010C6
:103E8C00CD350010F13500101D3600102B3600100A
:103E9C00E1350010393600105F3600106D36001019
:0C3EAC007B360010973600109B3600108B
:103EB800000A010A020A030A070A040C050A060591
:103EC800080B090B0A0C0B0C0CFF0DFF0E0D0FFF56
:103ED80010FF0000040000200000014000800440A2
:103EE800000005400080054000800E40D03F0010D3
:103EF800010000007D000000050000000200000035
:103F0800010000006400000005000000050000003A
:103F1800000000000000000080D1F00880D1F00807
:103F2800000000000000000080D1F00880D1F008F7
:103F3800000000000000000080D1F00880D1F008E7
:103F4800000000000000000080D1F00880D1F008D7
:103F58000200000000000000001BB700001BB700B3
:103F6800010000000000000080D1F00880D1F008B6
:103F7800000000000000000080D1F00880D1F008A7
:103F8800000000000100000080D1F00880D1F00896
:103F98000000000000000000006CDC02006CDC0285
:103FA8000000000000000000006CDC02006CDC0275
:103FB8000C000000A00A0000100000000000000033
:103FC8000000000000000000D83F001000000000C2
:103FD800FFFFFF3F8D320010000002400400000088
:103FE80000000240F43F001001000000FC3F0010F8
:103FF800020000004004000041040200C43B00101D
:10400800C43B0010E43B0010EC3B0010FC3B0010EC
:10401800FC3B00104F4E004F4646004572726F72CF
:104028003A204750494F20646576696365206E6F72
:1040380074207265616479004572726F723A206605
:1040480061696C656420746F20636F6E666967755B
:1040580072652070696E004572726F723A206661EF
:10406800696C656420746F20746F67676C65207075
:10407800696E004C45442073746174653A20257359
:104088000A0061626F727428290A000B0A0E0C0F6D
:1040980010050A0B0E0C0F100A0B0D0C0F100B0F4E
:1040A800100A0F100B0E0C05080904636C6F636B84
:1040B8002D636F6E74726F6C6C6572403430303182
:1040C80030303030006770696F2D706F7274403017
:1040D8000072657365742D636F6E74726F6C6C65B6
:1040E8007240343030323030303000756172744094
:1040F8003430303730303030006D61696E002A2A34
:104108002A20426F6F74696E67205A6570687972E9
:10411800204F53206275696C642076342E322E301D
:10412800202A2A2A0A00286E756C6C29002A666CD7
:084138006F61742A0000000011
:10414000932F0010000000000B3000100000000052
:1041500000000000A02E6300A02E630000C201003A
:10416000000103000000000000000000000000004B
:10417000000000000000000000000740EC3F0010BD
:104180000000000000000000FC3B001006000000E2
:10419000D136001000000000CD360010C9360010E6
:0C41A000C8000000640000206400002043
:0841AC0000000000000000000B
:0441B40015E015E01D
:0400000510000EE9F0
:00000001FF
